{"contracts/generated/temporary/IJsonApiTemporary.sol":{"IJsonApiTemporary":{"abi":[{"inputs":[{"components":[{"internalType":"bytes32[]","name":"merkleProof","type":"bytes32[]"},{"components":[{"internalType":"bytes32","name":"attestationType","type":"bytes32"},{"internalType":"bytes32","name":"sourceId","type":"bytes32"},{"internalType":"uint64","name":"votingRound","type":"uint64"},{"internalType":"uint64","name":"lowestUsedTimestamp","type":"uint64"},{"components":[{"internalType":"string","name":"url","type":"string"},{"internalType":"string","name":"postprocessJq","type":"string"},{"internalType":"string","name":"abi_signature","type":"string"}],"internalType":"struct IJsonApi.RequestBody","name":"requestBody","type":"tuple"},{"components":[{"internalType":"bytes","name":"abi_encoded_data","type":"bytes"}],"internalType":"struct IJsonApi.ResponseBody","name":"responseBody","type":"tuple"}],"internalType":"struct IJsonApi.Response","name":"data","type":"tuple"}],"internalType":"struct IJsonApi.Proof","name":"_proof","type":"tuple"}],"name":"proof","outputs":[],"stateMutability":"pure","type":"function"},{"inputs":[{"components":[{"internalType":"bytes32","name":"attestationType","type":"bytes32"},{"internalType":"bytes32","name":"sourceId","type":"bytes32"},{"internalType":"bytes32","name":"messageIntegrityCode","type":"bytes32"},{"components":[{"internalType":"string","name":"url","type":"string"},{"internalType":"string","name":"postprocessJq","type":"string"},{"internalType":"string","name":"abi_signature","type":"string"}],"internalType":"struct IJsonApi.RequestBody","name":"requestBody","type":"tuple"}],"internalType":"struct IJsonApi.Request","name":"_request","type":"tuple"}],"name":"request","outputs":[],"stateMutability":"pure","type":"function"},{"inputs":[{"components":[{"internalType":"bytes32","name":"attestationType","type":"bytes32"},{"internalType":"bytes32","name":"sourceId","type":"bytes32"},{"internalType":"uint64","name":"votingRound","type":"uint64"},{"internalType":"uint64","name":"lowestUsedTimestamp","type":"uint64"},{"components":[{"internalType":"string","name":"url","type":"string"},{"internalType":"string","name":"postprocessJq","type":"string"},{"internalType":"string","name":"abi_signature","type":"string"}],"internalType":"struct IJsonApi.RequestBody","name":"requestBody","type":"tuple"},{"components":[{"internalType":"bytes","name":"abi_encoded_data","type":"bytes"}],"internalType":"struct IJsonApi.ResponseBody","name":"responseBody","type":"tuple"}],"internalType":"struct IJsonApi.Response","name":"_response","type":"tuple"}],"name":"response","outputs":[],"stateMutability":"pure","type":"function"}],"evm":{"bytecode":{"linkReferences":{},"object":"608060405234801561001057600080fd5b50610163806100206000396000f3fe608060405234801561001057600080fd5b50600436106100415760003560e01c8063088c0e4f146100465780637c8ad5fd14610059578063fd8f604314610067575b600080fd5b610057610054366004610075565b50565b005b6100576100543660046100b7565b6100576100543660046100f2565b60006020828403121561008757600080fd5b813567ffffffffffffffff81111561009e57600080fd5b8201604081850312156100b057600080fd5b9392505050565b6000602082840312156100c957600080fd5b813567ffffffffffffffff8111156100e057600080fd5b8201608081850312156100b057600080fd5b60006020828403121561010457600080fd5b813567ffffffffffffffff81111561011b57600080fd5b820160c081850312156100b057600080fdfea264697066735822122032ed51af8ffeefa3ff955a3c2eb34f95db87195840f9de847b0b4bc5e2e3580964736f6c63430008140033","opcodes":"PUSH1 0x80 PUSH1 0x40 MSTORE CALLVALUE DUP1 ISZERO PUSH2 0x10 JUMPI PUSH1 0x0 DUP1 REVERT JUMPDEST POP PUSH2 0x163 DUP1 PUSH2 0x20 PUSH1 0x0 CODECOPY PUSH1 0x0 RETURN INVALID PUSH1 0x80 PUSH1 0x40 MSTORE CALLVALUE DUP1 ISZERO PUSH2 0x10 JUMPI PUSH1 0x0 DUP1 REVERT JUMPDEST POP PUSH1 0x4 CALLDATASIZE LT PUSH2 0x41 JUMPI PUSH1 0x0 CALLDATALOAD PUSH1 0xE0 SHR DUP1 PUSH4 0x88C0E4F EQ PUSH2 0x46 JUMPI DUP1 PUSH4 0x7C8AD5FD EQ PUSH2 0x59 JUMPI DUP1 PUSH4 0xFD8F6043 EQ PUSH2 0x67 JUMPI JUMPDEST PUSH1 0x0 DUP1 REVERT JUMPDEST PUSH2 0x57 PUSH2 0x54 CALLDATASIZE PUSH1 0x4 PUSH2 0x75 JUMP JUMPDEST POP JUMP JUMPDEST STOP JUMPDEST PUSH2 0x57 PUSH2 0x54 CALLDATASIZE PUSH1 0x4 PUSH2 0xB7 JUMP JUMPDEST PUSH2 0x57 PUSH2 0x54 CALLDATASIZE PUSH1 0x4 PUSH2 0xF2 JUMP JUMPDEST PUSH1 0x0 PUSH1 0x20 DUP3 DUP5 SUB SLT ISZERO PUSH2 0x87 JUMPI PUSH1 0x0 DUP1 REVERT JUMPDEST DUP2 CALLDATALOAD PUSH8 0xFFFFFFFFFFFFFFFF DUP2 GT ISZERO PUSH2 0x9E JUMPI PUSH1 0x0 DUP1 REVERT JUMPDEST DUP3 ADD PUSH1 0x40 DUP2 DUP6 SUB SLT ISZERO PUSH2 0xB0 JUMPI PUSH1 0x0 DUP1 REVERT JUMPDEST SWAP4 SWAP3 POP POP POP JUMP JUMPDEST PUSH1 0x0 PUSH1 0x20 DUP3 DUP5 SUB SLT ISZERO PUSH2 0xC9 JUMPI PUSH1 0x0 DUP1 REVERT JUMPDEST DUP2 CALLDATALOAD PUSH8 0xFFFFFFFFFFFFFFFF DUP2 GT ISZERO PUSH2 0xE0 JUMPI PUSH1 0x0 DUP1 REVERT JUMPDEST DUP3 ADD PUSH1 0x80 DUP2 DUP6 SUB SLT ISZERO PUSH2 0xB0 JUMPI PUSH1 0x0 DUP1 REVERT JUMPDEST PUSH1 0x0 PUSH1 0x20 DUP3 DUP5 SUB SLT ISZERO PUSH2 0x104 JUMPI PUSH1 0x0 DUP1 REVERT JUMPDEST DUP2 CALLDATALOAD PUSH8 0xFFFFFFFFFFFFFFFF DUP2 GT ISZERO PUSH2 0x11B JUMPI PUSH1 0x0 DUP1 REVERT JUMPDEST DUP3 ADD PUSH1 0xC0 DUP2 DUP6 SUB SLT ISZERO PUSH2 0xB0 JUMPI PUSH1 0x0 DUP1 REVERT INVALID LOG2 PUSH5 0x6970667358 0x22 SLT KECCAK256 ORIGIN 0xED MLOAD 0xAF DUP16 INVALID 0xEF LOG3 SELFDESTRUCT SWAP6 GAS EXTCODECOPY 0x2E 0xB3 0x4F SWAP6 0xDB DUP8 NOT PC BLOCKHASH 0xF9 0xDE DUP5 PUSH28 0xB4BC5E2E3580964736F6C6343000814003300000000000000000000 "},"methodIdentifiers":{"proof((bytes32[],(bytes32,bytes32,uint64,uint64,(string,string,string),(bytes))))":"088c0e4f","request((bytes32,bytes32,bytes32,(string,string,string)))":"7c8ad5fd","response((bytes32,bytes32,uint64,uint64,(string,string,string),(bytes)))":"fd8f6043"}}}}}